{
  "_format": "hh-sol-artifact-1",
  "contractName": "Crowdfunding",
  "sourceName": "contracts/ripple.sol",
  "abi": [
    {
      "anonymous": false,
      "inputs": [
        {
          "indexed": false,
          "internalType": "uint256",
          "name": "campaignID",
          "type": "uint256"
        }
      ],
      "name": "CampaignCreated",
      "type": "event"
    },
    {
      "inputs": [],
      "name": "campaignCount",
      "outputs": [
        {
          "internalType": "uint256",
          "name": "",
          "type": "uint256"
        }
      ],
      "stateMutability": "view",
      "type": "function"
    },
    {
      "inputs": [
        {
          "internalType": "uint256",
          "name": "",
          "type": "uint256"
        }
      ],
      "name": "campaigns",
      "outputs": [
        {
          "internalType": "string",
          "name": "businessName",
          "type": "string"
        },
        {
          "internalType": "uint256",
          "name": "goal",
          "type": "uint256"
        },
        {
          "internalType": "uint256",
          "name": "endTime",
          "type": "uint256"
        },
        {
          "internalType": "uint256",
          "name": "fundsRaised",
          "type": "uint256"
        }
      ],
      "stateMutability": "view",
      "type": "function"
    },
    {
      "inputs": [
        {
          "internalType": "string",
          "name": "_businessName",
          "type": "string"
        },
        {
          "internalType": "uint256",
          "name": "_goal",
          "type": "uint256"
        },
        {
          "internalType": "uint256",
          "name": "_campaignDuration",
          "type": "uint256"
        }
      ],
      "name": "createCampaign",
      "outputs": [
        {
          "internalType": "uint256",
          "name": "campaignID",
          "type": "uint256"
        }
      ],
      "stateMutability": "nonpayable",
      "type": "function"
    },
    {
      "inputs": [
        {
          "internalType": "uint256",
          "name": "_campaignID",
          "type": "uint256"
        },
        {
          "internalType": "uint256",
          "name": "_investorId",
          "type": "uint256"
        },
        {
          "internalType": "uint256",
          "name": "_amount",
          "type": "uint256"
        }
      ],
      "name": "deposit",
      "outputs": [],
      "stateMutability": "nonpayable",
      "type": "function"
    },
    {
      "inputs": [
        {
          "internalType": "uint256",
          "name": "_campaignID",
          "type": "uint256"
        }
      ],
      "name": "getCampaignInfo",
      "outputs": [
        {
          "internalType": "string",
          "name": "businessName",
          "type": "string"
        },
        {
          "internalType": "uint256",
          "name": "goal",
          "type": "uint256"
        },
        {
          "internalType": "uint256",
          "name": "endTime",
          "type": "uint256"
        },
        {
          "internalType": "uint256",
          "name": "fundsRaised",
          "type": "uint256"
        }
      ],
      "stateMutability": "view",
      "type": "function"
    },
    {
      "inputs": [
        {
          "internalType": "uint256",
          "name": "_campaignID",
          "type": "uint256"
        },
        {
          "internalType": "uint256",
          "name": "_investorId",
          "type": "uint256"
        }
      ],
      "name": "withdraw",
      "outputs": [],
      "stateMutability": "nonpayable",
      "type": "function"
    }
  ],
  "bytecode": "0x60806040526000805534801561001457600080fd5b50611010806100246000396000f3fe608060405234801561001057600080fd5b50600436106100615760003560e01c8062aeef8a14610066578063141961bc146100825780633020580b146100b5578063441a3e70146100e55780637274e30d14610101578063e38e2b821461011f575b600080fd5b610080600480360381019061007b9190610659565b610152565b005b61009c600480360381019061009791906106ac565b61023d565b6040516100ac9493929190610778565b60405180910390f35b6100cf60048036038101906100ca91906108f9565b6102f5565b6040516100dc9190610968565b60405180910390f35b6100ff60048036038101906100fa9190610983565b610423565b005b6101096104fc565b6040516101169190610968565b60405180910390f35b610139600480360381019061013491906106ac565b610502565b6040516101499493929190610778565b60405180910390f35b6000548310610196576040517f08c379a000000000000000000000000000000000000000000000000000000000815260040161018d90610a0f565b60405180910390fd5b606481116101d9576040517f08c379a00000000000000000000000000000000000000000000000000000000081526004016101d090610aa1565b60405180910390fd5b60006001600085815260200190815260200160002090508181600401600085815260200190815260200160002060008282546102159190610af0565b92505081905550818160030160008282546102309190610af0565b9250508190555050505050565b600160205280600052604060002060009150905080600001805461026090610b53565b80601f016020809104026020016040519081016040528092919081815260200182805461028c90610b53565b80156102d95780601f106102ae576101008083540402835291602001916102d9565b820191906000526020600020905b8154815290600101906020018083116102bc57829003601f168201915b5050505050908060010154908060020154908060030154905084565b6000808311610339576040517f08c379a000000000000000000000000000000000000000000000000000000000815260040161033090610bf6565b60405180910390fd5b6000821161037c576040517f08c379a000000000000000000000000000000000000000000000000000000000815260040161037390610c88565b60405180910390fd5b60008081548092919061038e90610ca8565b9190505590507fbc0a5edd152fa5b886dcae82c5c109d113708653b4b9c0224549ccdf715af94e816040516103c39190610968565b60405180910390a16000600160008381526020019081526020016000209050848160000190816103f39190610e9c565b5083816001018190555082426104099190610af0565b816002018190555060008160030181905550509392505050565b6000548210610467576040517f08c379a000000000000000000000000000000000000000000000000000000000815260040161045e90610a0f565b60405180910390fd5b60006001600084815260200190815260200160002090506000816004016000848152602001908152602001600020549050600081116104db576040517f08c379a00000000000000000000000000000000000000000000000000000000081526004016104d290610fba565b60405180910390fd5b60008260040160008581526020019081526020016000208190555050505050565b60005481565b606060008060008054851061054c576040517f08c379a000000000000000000000000000000000000000000000000000000000815260040161054390610a0f565b60405180910390fd5b600060016000878152602001908152602001600020905080600001805461057290610b53565b80601f016020809104026020016040519081016040528092919081815260200182805461059e90610b53565b80156105eb5780601f106105c0576101008083540402835291602001916105eb565b820191906000526020600020905b8154815290600101906020018083116105ce57829003601f168201915b50505050509450806001015493508060020154925080600301549150509193509193565b6000604051905090565b600080fd5b600080fd5b6000819050919050565b61063681610623565b811461064157600080fd5b50565b6000813590506106538161062d565b92915050565b60008060006060848603121561067257610671610619565b5b600061068086828701610644565b935050602061069186828701610644565b92505060406106a286828701610644565b9150509250925092565b6000602082840312156106c2576106c1610619565b5b60006106d084828501610644565b91505092915050565b600081519050919050565b600082825260208201905092915050565b60005b838110156107135780820151818401526020810190506106f8565b60008484015250505050565b6000601f19601f8301169050919050565b600061073b826106d9565b61074581856106e4565b93506107558185602086016106f5565b61075e8161071f565b840191505092915050565b61077281610623565b82525050565b600060808201905081810360008301526107928187610730565b90506107a16020830186610769565b6107ae6040830185610769565b6107bb6060830184610769565b95945050505050565b600080fd5b600080fd5b7f4e487b7100000000000000000000000000000000000000000000000000000000600052604160045260246000fd5b6108068261071f565b810181811067ffffffffffffffff82111715610825576108246107ce565b5b80604052505050565b600061083861060f565b905061084482826107fd565b919050565b600067ffffffffffffffff821115610864576108636107ce565b5b61086d8261071f565b9050602081019050919050565b82818337600083830152505050565b600061089c61089784610849565b61082e565b9050828152602081018484840111156108b8576108b76107c9565b5b6108c384828561087a565b509392505050565b600082601f8301126108e0576108df6107c4565b5b81356108f0848260208601610889565b91505092915050565b60008060006060848603121561091257610911610619565b5b600084013567ffffffffffffffff8111156109305761092f61061e565b5b61093c868287016108cb565b935050602061094d86828701610644565b925050604061095e86828701610644565b9150509250925092565b600060208201905061097d6000830184610769565b92915050565b6000806040838503121561099a57610999610619565b5b60006109a885828601610644565b92505060206109b985828601610644565b9150509250929050565b7f496e76616c69642063616d706169676e20494400000000000000000000000000600082015250565b60006109f96013836106e4565b9150610a04826109c3565b602082019050919050565b60006020820190508181036000830152610a28816109ec565b9050919050565b7f4d757374206465706f736974206120616d6f756e74206772656174616572207460008201527f68656e2031303000000000000000000000000000000000000000000000000000602082015250565b6000610a8b6027836106e4565b9150610a9682610a2f565b604082019050919050565b60006020820190508181036000830152610aba81610a7e565b9050919050565b7f4e487b7100000000000000000000000000000000000000000000000000000000600052601160045260246000fd5b6000610afb82610623565b9150610b0683610623565b9250828201905080821115610b1e57610b1d610ac1565b5b92915050565b7f4e487b7100000000000000000000000000000000000000000000000000000000600052602260045260246000fd5b60006002820490506001821680610b6b57607f821691505b602082108103610b7e57610b7d610b24565b5b50919050565b7f476f616c20616d6f756e74206d7573742062652067726561746572207468616e60008201527f2030000000000000000000000000000000000000000000000000000000000000602082015250565b6000610be06022836106e4565b9150610beb82610b84565b604082019050919050565b60006020820190508181036000830152610c0f81610bd3565b9050919050565b7f43616d706169676e206475726174696f6e206d7573742062652067726561746560008201527f72207468616e2030000000000000000000000000000000000000000000000000602082015250565b6000610c726028836106e4565b9150610c7d82610c16565b604082019050919050565b60006020820190508181036000830152610ca181610c65565b9050919050565b6000610cb382610623565b91507fffffffffffffffffffffffffffffffffffffffffffffffffffffffffffffffff8203610ce557610ce4610ac1565b5b600182019050919050565b60008190508160005260206000209050919050565b60006020601f8301049050919050565b600082821b905092915050565b600060088302610d527fffffffffffffffffffffffffffffffffffffffffffffffffffffffffffffffff82610d15565b610d5c8683610d15565b95508019841693508086168417925050509392505050565b6000819050919050565b6000610d99610d94610d8f84610623565b610d74565b610623565b9050919050565b6000819050919050565b610db383610d7e565b610dc7610dbf82610da0565b848454610d22565b825550505050565b600090565b610ddc610dcf565b610de7818484610daa565b505050565b5b81811015610e0b57610e00600082610dd4565b600181019050610ded565b5050565b601f821115610e5057610e2181610cf0565b610e2a84610d05565b81016020851015610e39578190505b610e4d610e4585610d05565b830182610dec565b50505b505050565b600082821c905092915050565b6000610e7360001984600802610e55565b1980831691505092915050565b6000610e8c8383610e62565b9150826002028217905092915050565b610ea5826106d9565b67ffffffffffffffff811115610ebe57610ebd6107ce565b5b610ec88254610b53565b610ed3828285610e0f565b600060209050601f831160018114610f065760008415610ef4578287015190505b610efe8582610e80565b865550610f66565b601f198416610f1486610cf0565b60005b82811015610f3c57848901518255600182019150602085019450602081019050610f17565b86831015610f595784890151610f55601f891682610e62565b8355505b6001600288020188555050505b505050505050565b7f4e6f2066756e647320746f207769746864726177000000000000000000000000600082015250565b6000610fa46014836106e4565b9150610faf82610f6e565b602082019050919050565b60006020820190508181036000830152610fd381610f97565b905091905056fea264697066735822122037abcdc7fcf07bbb5763141562c2db8c796bcd0838c8873374d303e5054b930764736f6c63430008130033",
  "linkReferences": {},
  "deployedLinkReferences": {}
}